{
  "contractName": "Marketplace",
  "abi": [
    {
      "inputs": [],
      "payable": false,
      "stateMutability": "nonpayable",
      "type": "constructor"
    },
    {
      "anonymous": false,
      "inputs": [
        {
          "indexed": false,
          "internalType": "uint256",
          "name": "id",
          "type": "uint256"
        },
        {
          "indexed": false,
          "internalType": "string",
          "name": "nama",
          "type": "string"
        },
        {
          "indexed": false,
          "internalType": "uint256",
          "name": "storageCapacity",
          "type": "uint256"
        },
        {
          "indexed": false,
          "internalType": "string",
          "name": "hardiskType",
          "type": "string"
        },
        {
          "indexed": false,
          "internalType": "string",
          "name": "hardiskVersion",
          "type": "string"
        },
        {
          "indexed": false,
          "internalType": "uint256",
          "name": "read",
          "type": "uint256"
        },
        {
          "indexed": false,
          "internalType": "uint256",
          "name": "write",
          "type": "uint256"
        },
        {
          "indexed": false,
          "internalType": "uint256",
          "name": "price",
          "type": "uint256"
        },
        {
          "indexed": false,
          "internalType": "string",
          "name": "catatan",
          "type": "string"
        },
        {
          "indexed": false,
          "internalType": "bool",
          "name": "purchased",
          "type": "bool"
        }
      ],
      "name": "ProductCreated",
      "type": "event"
    },
    {
      "constant": true,
      "inputs": [],
      "name": "productCount",
      "outputs": [
        {
          "internalType": "uint256",
          "name": "",
          "type": "uint256"
        }
      ],
      "payable": false,
      "stateMutability": "view",
      "type": "function"
    },
    {
      "constant": true,
      "inputs": [
        {
          "internalType": "bytes32",
          "name": "",
          "type": "bytes32"
        }
      ],
      "name": "products",
      "outputs": [
        {
          "internalType": "bytes32",
          "name": "catatan",
          "type": "bytes32"
        },
        {
          "internalType": "bool",
          "name": "purchased",
          "type": "bool"
        }
      ],
      "payable": false,
      "stateMutability": "view",
      "type": "function"
    },
    {
      "constant": true,
      "inputs": [
        {
          "internalType": "uint256",
          "name": "",
          "type": "uint256"
        }
      ],
      "name": "productsOld",
      "outputs": [
        {
          "internalType": "uint256",
          "name": "id",
          "type": "uint256"
        },
        {
          "internalType": "string",
          "name": "nama",
          "type": "string"
        },
        {
          "internalType": "uint256",
          "name": "storageCapacity",
          "type": "uint256"
        },
        {
          "internalType": "string",
          "name": "hardiskType",
          "type": "string"
        },
        {
          "internalType": "string",
          "name": "hardiskVersion",
          "type": "string"
        },
        {
          "internalType": "uint256",
          "name": "read",
          "type": "uint256"
        },
        {
          "internalType": "uint256",
          "name": "write",
          "type": "uint256"
        },
        {
          "internalType": "uint256",
          "name": "price",
          "type": "uint256"
        },
        {
          "internalType": "string",
          "name": "catatan",
          "type": "string"
        },
        {
          "internalType": "bool",
          "name": "purchased",
          "type": "bool"
        }
      ],
      "payable": false,
      "stateMutability": "view",
      "type": "function"
    },
    {
      "constant": true,
      "inputs": [
        {
          "internalType": "bytes32",
          "name": "_bytes32",
          "type": "bytes32"
        }
      ],
      "name": "bytes32ToStr",
      "outputs": [
        {
          "internalType": "string",
          "name": "",
          "type": "string"
        }
      ],
      "payable": false,
      "stateMutability": "pure",
      "type": "function"
    },
    {
      "constant": false,
      "inputs": [
        {
          "internalType": "bytes32",
          "name": "nama",
          "type": "bytes32"
        },
        {
          "internalType": "bytes32",
          "name": "storageCapacity",
          "type": "bytes32"
        },
        {
          "internalType": "bytes32",
          "name": "hardiskType",
          "type": "bytes32"
        },
        {
          "internalType": "bytes32",
          "name": "hardiskVersion",
          "type": "bytes32"
        },
        {
          "internalType": "bytes32",
          "name": "read",
          "type": "bytes32"
        },
        {
          "internalType": "bytes32",
          "name": "write",
          "type": "bytes32"
        },
        {
          "internalType": "bytes32",
          "name": "price",
          "type": "bytes32"
        },
        {
          "internalType": "bytes32",
          "name": "catatan",
          "type": "bytes32"
        }
      ],
      "name": "createProductOptimized",
      "outputs": [],
      "payable": false,
      "stateMutability": "nonpayable",
      "type": "function"
    },
    {
      "constant": false,
      "inputs": [
        {
          "internalType": "string",
          "name": "nama",
          "type": "string"
        },
        {
          "internalType": "uint256",
          "name": "storageCapacity",
          "type": "uint256"
        },
        {
          "internalType": "string",
          "name": "hardiskType",
          "type": "string"
        },
        {
          "internalType": "string",
          "name": "hardiskVersion",
          "type": "string"
        },
        {
          "internalType": "uint256",
          "name": "read",
          "type": "uint256"
        },
        {
          "internalType": "uint256",
          "name": "write",
          "type": "uint256"
        },
        {
          "internalType": "uint256",
          "name": "price",
          "type": "uint256"
        },
        {
          "internalType": "string",
          "name": "catatan",
          "type": "string"
        }
      ],
      "name": "createProduct",
      "outputs": [],
      "payable": false,
      "stateMutability": "nonpayable",
      "type": "function"
    }
  ],
  "bytecode": "0x60806040526000805534801561001457600080fd5b506111e8806100246000396000f3fe608060405234801561001057600080fd5b50600436106100625760003560e01c80635458c9f4146100675780637905439114610310578063798f6a0b1461035d5780637d006c8214610576578063e0f6ef87146105eb578063ef0b236814610609575b600080fd5b61030e600480360361010081101561007e57600080fd5b810190808035906020019064010000000081111561009b57600080fd5b8201836020820111156100ad57600080fd5b803590602001918460018302840111640100000000831117156100cf57600080fd5b91908080601f016020809104026020016040519081016040528093929190818152602001838380828437600081840152601f19601f820116905080830192505050505050509192919290803590602001909291908035906020019064010000000081111561013c57600080fd5b82018360208201111561014e57600080fd5b8035906020019184600183028401116401000000008311171561017057600080fd5b91908080601f016020809104026020016040519081016040528093929190818152602001838380828437600081840152601f19601f820116905080830192505050505050509192919290803590602001906401000000008111156101d357600080fd5b8201836020820111156101e557600080fd5b8035906020019184600183028401116401000000008311171561020757600080fd5b91908080601f016020809104026020016040519081016040528093929190818152602001838380828437600081840152601f19601f8201169050808301925050505050505091929192908035906020019092919080359060200190929190803590602001909291908035906020019064010000000081111561028857600080fd5b82018360208201111561029a57600080fd5b803590602001918460018302840111640100000000831117156102bc57600080fd5b91908080601f016020809104026020016040519081016040528093929190818152602001838380828437600081840152601f19601f8201169050808301925050505050505091929192905050506106b0565b005b61033c6004803603602081101561032657600080fd5b8101908080359060200190929190505050610a1c565b60405180838152602001821515151581526020019250505060405180910390f35b6103896004803603602081101561037357600080fd5b8101908080359060200190929190505050610a4d565b604051808b8152602001806020018a81526020018060200180602001898152602001888152602001878152602001806020018615151515815260200185810385528e818151815260200191508051906020019080838360005b838110156103fd5780820151818401526020810190506103e2565b50505050905090810190601f16801561042a5780820380516001836020036101000a031916815260200191505b5085810384528c818151815260200191508051906020019080838360005b83811015610463578082015181840152602081019050610448565b50505050905090810190601f1680156104905780820380516001836020036101000a031916815260200191505b5085810383528b818151815260200191508051906020019080838360005b838110156104c95780820151818401526020810190506104ae565b50505050905090810190601f1680156104f65780820380516001836020036101000a031916815260200191505b50858103825287818151815260200191508051906020019080838360005b8381101561052f578082015181840152602081019050610514565b50505050905090810190601f16801561055c5780820380516001836020036101000a031916815260200191505b509e50505050505050505050505050505060405180910390f35b6105e9600480360361010081101561058d57600080fd5b810190808035906020019092919080359060200190929190803590602001909291908035906020019092919080359060200190929190803590602001909291908035906020019092919080359060200190929190505050610d0e565b005b6105f3611060565b6040518082815260200191505060405180910390f35b6106356004803603602081101561061f57600080fd5b8101908080359060200190929190505050611066565b6040518080602001828103825283818151815260200191508051906020019080838360005b8381101561067557808201518184015260208101905061065a565b50505050905090810190601f1680156106a25780820380516001836020036101000a031916815260200191505b509250505060405180910390f35b600082116106bd57600080fd5b6000808154809291906001019190505550604051806101400160405280600054815260200189815260200188815260200187815260200186815260200185815260200184815260200183815260200182815260200160001515815250600160008054815260200190815260200160002060008201518160000155602082015181600101908051906020019061075392919061110e565b5060408201518160020155606082015181600301908051906020019061077a92919061110e565b50608082015181600401908051906020019061079792919061110e565b5060a0820151816005015560c0820151816006015560e082015181600701556101008201518160080190805190602001906107d392919061110e565b506101208201518160090160006101000a81548160ff0219169083151502179055509050507fd0b52bc755d817ab230881335ce47e8b25a987ee7dfa6f23125976a5d9205c5860005489898989898989896000604051808b8152602001806020018a81526020018060200180602001898152602001888152602001878152602001806020018615151515815260200185810385528e818151815260200191508051906020019080838360005b8381101561089a57808201518184015260208101905061087f565b50505050905090810190601f1680156108c75780820380516001836020036101000a031916815260200191505b5085810384528c818151815260200191508051906020019080838360005b838110156109005780820151818401526020810190506108e5565b50505050905090810190601f16801561092d5780820380516001836020036101000a031916815260200191505b5085810383528b818151815260200191508051906020019080838360005b8381101561096657808201518184015260208101905061094b565b50505050905090810190601f1680156109935780820380516001836020036101000a031916815260200191505b50858103825287818151815260200191508051906020019080838360005b838110156109cc5780820151818401526020810190506109b1565b50505050905090810190601f1680156109f95780820380516001836020036101000a031916815260200191505b509e50505050505050505050505050505060405180910390a15050505050505050565b60026020528060005260406000206000915090508060000154908060010160009054906101000a900460ff16905082565b6001602052806000526040600020600091509050806000015490806001018054600181600116156101000203166002900480601f016020809104026020016040519081016040528092919081815260200182805460018160011615610100020316600290048015610aff5780601f10610ad457610100808354040283529160200191610aff565b820191906000526020600020905b815481529060010190602001808311610ae257829003601f168201915b505050505090806002015490806003018054600181600116156101000203166002900480601f016020809104026020016040519081016040528092919081815260200182805460018160011615610100020316600290048015610ba35780601f10610b7857610100808354040283529160200191610ba3565b820191906000526020600020905b815481529060010190602001808311610b8657829003601f168201915b505050505090806004018054600181600116156101000203166002900480601f016020809104026020016040519081016040528092919081815260200182805460018160011615610100020316600290048015610c415780601f10610c1657610100808354040283529160200191610c41565b820191906000526020600020905b815481529060010190602001808311610c2457829003601f168201915b505050505090806005015490806006015490806007015490806008018054600181600116156101000203166002900480601f016020809104026020016040519081016040528092919081815260200182805460018160011615610100020316600290048015610cf15780601f10610cc657610100808354040283529160200191610cf1565b820191906000526020600020905b815481529060010190602001808311610cd457829003601f168201915b5050505050908060090160009054906101000a900460ff1690508a565b60008081548092919060010191905055506000888888888888886040516020018088815260200187815260200186815260200185815260200184815260200183815260200182815260200197505050505050505060405160208183030381529060405280519060200120905081600260008381526020019081526020016000206000018190555081600260008381526020019081526020016000206000018190555060006002600083815260200190815260200160002060010160006101000a81548160ff0219169083151502179055506060610dea8a611066565b905060008960001c90506060610dff8a611066565b90506060610e0c8a611066565b905060008960001c905060008960001c905060008960001c90506060610e318a611066565b90507fd0b52bc755d817ab230881335ce47e8b25a987ee7dfa6f23125976a5d9205c5860005489898989898989896000604051808b8152602001806020018a81526020018060200180602001898152602001888152602001878152602001806020018615151515815260200185810385528e818151815260200191508051906020019080838360005b83811015610ed5578082015181840152602081019050610eba565b50505050905090810190601f168015610f025780820380516001836020036101000a031916815260200191505b5085810384528c818151815260200191508051906020019080838360005b83811015610f3b578082015181840152602081019050610f20565b50505050905090810190601f168015610f685780820380516001836020036101000a031916815260200191505b5085810383528b818151815260200191508051906020019080838360005b83811015610fa1578082015181840152602081019050610f86565b50505050905090810190601f168015610fce5780820380516001836020036101000a031916815260200191505b50858103825287818151815260200191508051906020019080838360005b83811015611007578082015181840152602081019050610fec565b50505050905090810190601f1680156110345780820380516001836020036101000a031916815260200191505b509e50505050505050505050505050505060405180910390a15050505050505050505050505050505050565b60005481565b60608060206040519080825280601f01601f19166020018201604052801561109d5781602001600182028038833980820191505090505b50905060005b6020811015611104578381602081106110b857fe5b1a60f81b8282815181106110c857fe5b60200101907effffffffffffffffffffffffffffffffffffffffffffffffffffffffffffff1916908160001a90535080806001019150506110a3565b5080915050919050565b828054600181600116156101000203166002900490600052602060002090601f016020900481019282601f1061114f57805160ff191683800117855561117d565b8280016001018555821561117d579182015b8281111561117c578251825591602001919060010190611161565b5b50905061118a919061118e565b5090565b6111b091905b808211156111ac576000816000905550600101611194565b5090565b9056fea265627a7a723158200b8312babaf8489a43b73e2a9b30a13683c1ed88497299e5d948fc443f3b44e664736f6c63430005100032",
  "source": "pragma solidity ^0.5.0;\r\n\r\ncontract Marketplace {\r\n    uint256 public productCount = 0;\r\n    mapping(uint256 => Product) public productsOld;\r\n    mapping(bytes32 => Attribute) public products;\r\n    struct Attribute {\r\n        bytes32 catatan;\r\n        bool purchased;\r\n    }\r\n\r\n    struct Product {\r\n        uint256 id;\r\n        string nama;\r\n        uint256 storageCapacity;\r\n        string hardiskType;\r\n        string hardiskVersion;\r\n        uint256 read;\r\n        uint256 write;\r\n        uint256 price;\r\n        string catatan;\r\n        bool purchased;\r\n    }\r\n\r\n    event ProductCreated(\r\n        uint256 id,\r\n        string nama,\r\n        uint256 storageCapacity,\r\n        string hardiskType,\r\n        string hardiskVersion,\r\n        uint256 read,\r\n        uint256 write,\r\n        uint256 price,\r\n        string catatan,\r\n        bool purchased\r\n    );\r\n\r\n    constructor() public {}\r\n\r\n    function bytes32ToStr(bytes32 _bytes32) public pure returns (string memory) {\r\n        bytes memory bytesArray = new bytes(32);\r\n        for (uint256 i; i < 32; i++) {\r\n            bytesArray[i] = _bytes32[i];\r\n            }\r\n        return string(bytesArray);\r\n    }\r\n\r\n    function createProductOptimized(\r\n        bytes32 nama,\r\n        bytes32 storageCapacity,\r\n        bytes32 hardiskType,\r\n        bytes32 hardiskVersion,\r\n        bytes32 read,\r\n        bytes32 write,\r\n        bytes32 price,\r\n        bytes32 catatan\r\n    ) public {\r\n        productCount++;\r\n\r\n        bytes32 encryptedBytes = keccak256(\r\n            abi.encodePacked(\r\n                nama,\r\n                storageCapacity,\r\n                hardiskType,\r\n                hardiskVersion,\r\n                read,\r\n                write,\r\n                price\r\n            )\r\n        );\r\n        products[encryptedBytes].catatan = catatan;\r\n        products[encryptedBytes].catatan = catatan;\r\n        products[encryptedBytes].purchased = false;\r\n        \r\n        string memory _nama = bytes32ToStr(nama);\r\n        uint256 _storageCapacity = uint256(storageCapacity);\r\n        string memory _hardiskType = bytes32ToStr(hardiskType);\r\n        string memory _hardiskVersion = bytes32ToStr(hardiskVersion);\r\n        uint256 _read = uint256(read);\r\n        uint256 _write = uint256(write);\r\n        uint256 _price = uint256(price);\r\n        string memory _catatan = bytes32ToStr(catatan);\r\n\r\n        emit ProductCreated(\r\n            productCount,\r\n            _nama,\r\n            _storageCapacity,\r\n            _hardiskType,\r\n            _hardiskVersion,\r\n            _read,\r\n            _write,\r\n            _price,\r\n            _catatan,\r\n            false\r\n        );\r\n    }\r\n\r\n    function createProduct(\r\n        string memory nama,\r\n        uint256 storageCapacity,\r\n        string memory hardiskType,\r\n        string memory hardiskVersion,\r\n        uint256 read,\r\n        uint256 write,\r\n        uint256 price,\r\n        string memory catatan\r\n    ) public {\r\n        require(price > 0);\r\n        productCount++;\r\n\r\n        productsOld[productCount] = Product(\r\n            productCount,\r\n            nama,\r\n            storageCapacity,\r\n            hardiskType,\r\n            hardiskVersion,\r\n            read,\r\n            write,\r\n            price,\r\n            catatan,\r\n            false\r\n        );\r\n        \r\n        emit ProductCreated(\r\n            productCount,\r\n            nama,\r\n            storageCapacity,\r\n            hardiskType,\r\n            hardiskVersion,\r\n            read,\r\n            write,\r\n            price,\r\n            catatan,\r\n            false\r\n        );\r\n\r\n    }\r\n}\r\n",
  "sourcePath": "C:\\Users\\Skripsi\\Desktop\\Skripsi\\optimasi-gas-ethereum\\contracts\\Marketplace.sol",
  "compiler": {
    "name": "solc",
    "version": "0.5.16+commit.9c3226ce.Emscripten.clang"
  },
  "schemaVersion": "3.4.2",
  "updatedAt": "2021-08-06T13:50:47.325Z",
  "devdoc": {
    "methods": {}
  },
  "userdoc": {
    "methods": {}
  }
}