{
  "contractName": "Marketplace",
  "abi": [
    {
      "inputs": [],
      "payable": false,
      "stateMutability": "nonpayable",
      "type": "constructor"
    },
    {
      "constant": false,
      "inputs": [
        {
          "internalType": "bytes32",
          "name": "nama",
          "type": "bytes32"
        },
        {
          "internalType": "bytes32",
          "name": "storageCapacity",
          "type": "bytes32"
        },
        {
          "internalType": "bytes32",
          "name": "hardiskType",
          "type": "bytes32"
        },
        {
          "internalType": "bytes32",
          "name": "hardiskVersion",
          "type": "bytes32"
        },
        {
          "internalType": "bytes32",
          "name": "read",
          "type": "bytes32"
        },
        {
          "internalType": "bytes32",
          "name": "write",
          "type": "bytes32"
        },
        {
          "internalType": "bytes32",
          "name": "price",
          "type": "bytes32"
        },
        {
          "internalType": "bytes32",
          "name": "catatan",
          "type": "bytes32"
        }
      ],
      "name": "record",
      "outputs": [],
      "payable": false,
      "stateMutability": "nonpayable",
      "type": "function"
    }
  ],
  "bytecode": "0x608060405234801561001057600080fd5b506101c8806100206000396000f3fe608060405234801561001057600080fd5b506004361061002b5760003560e01c8063565fa5a914610030575b600080fd5b6100a3600480360361010081101561004757600080fd5b8101908080359060200190929190803590602001909291908035906020019092919080359060200190929190803590602001909291908035906020019092919080359060200190929190803590602001909291905050506100a5565b005b60008888888888888860405160200180888152602001878152602001868152602001858152602001848152602001838152602001828152602001975050505050505050604051602081830303815290604052805190602001209050816000807f310000000000000000000000000000000000000000000000000000000000000081526020019081526020016000206000018190555060008060007f3100000000000000000000000000000000000000000000000000000000000000815260200190815260200160002060010160006101000a81548160ff02191690831515021790555050505050505050505056fea265627a7a72315820caec2d5f0b927c9768c47d9c9143d5801a39caa072c2aa49501f529a7ece63f764736f6c63430005100032",
  "source": "pragma solidity ^0.5.0;\r\n\r\ncontract Marketplace {\r\n    struct Attribute {\r\n        bytes32 catatan;\r\n        bool purchased;\r\n    }\r\n\r\n    mapping(bytes32 => Attribute) records;\r\n\r\n    constructor() public {}\r\n\r\n    function record(\r\n        bytes32 nama,\r\n        bytes32 storageCapacity,\r\n        bytes32 hardiskType,\r\n        bytes32 hardiskVersion,\r\n        bytes32 read,\r\n        bytes32 write,\r\n        bytes32 price,\r\n        bytes32 catatan\r\n    ) public {\r\n        bytes32 encryptedBytes = keccak256(\r\n            abi.encodePacked(\r\n                nama,\r\n                storageCapacity,\r\n                hardiskType,\r\n                hardiskVersion,\r\n                read,\r\n                write,\r\n                price\r\n            )\r\n        );\r\n        records[\"1\"].catatan = catatan;\r\n        records[\"1\"].purchased = false;\r\n    }\r\n}\r\n",
  "sourcePath": "D:\\Project\\Ian\\smart-contract-master\\contracts\\Marketplace.sol",
  "compiler": {
    "name": "solc",
    "version": "0.5.16+commit.9c3226ce.Emscripten.clang"
  },
  "schemaVersion": "3.4.2",
  "updatedAt": "2021-08-04T01:08:56.896Z",
  "devdoc": {
    "methods": {}
  },
  "userdoc": {
    "methods": {}
  }
}